{
    "_format": "hh-sol-artifact-1",
    "contractName": "BonsaiV1",
    "sourceName": "contracts/BonsaiV1.sol",
    "abi": [
        {
            "anonymous": false,
            "inputs": [
                {
                    "indexed": true,
                    "internalType": "address",
                    "name": "owner",
                    "type": "address"
                },
                {
                    "indexed": true,
                    "internalType": "address",
                    "name": "approved",
                    "type": "address"
                },
                {
                    "indexed": true,
                    "internalType": "uint256",
                    "name": "tokenId",
                    "type": "uint256"
                }
            ],
            "name": "Approval",
            "type": "event"
        },
        {
            "anonymous": false,
            "inputs": [
                {
                    "indexed": true,
                    "internalType": "address",
                    "name": "owner",
                    "type": "address"
                },
                {
                    "indexed": true,
                    "internalType": "address",
                    "name": "operator",
                    "type": "address"
                },
                {
                    "indexed": false,
                    "internalType": "bool",
                    "name": "approved",
                    "type": "bool"
                }
            ],
            "name": "ApprovalForAll",
            "type": "event"
        },
        {
            "anonymous": false,
            "inputs": [
                {
                    "indexed": true,
                    "internalType": "address",
                    "name": "_holder",
                    "type": "address"
                },
                {
                    "indexed": false,
                    "internalType": "uint256",
                    "name": "_bal",
                    "type": "uint256"
                },
                {
                    "indexed": false,
                    "internalType": "bool",
                    "name": "_result",
                    "type": "bool"
                }
            ],
            "name": "GBERC20Checked",
            "type": "event"
        },
        {
            "anonymous": false,
            "inputs": [
                {
                    "indexed": false,
                    "internalType": "uint256",
                    "name": "seedNumber",
                    "type": "uint256"
                },
                {
                    "indexed": false,
                    "internalType": "address",
                    "name": "from",
                    "type": "address"
                },
                {
                    "indexed": false,
                    "internalType": "address",
                    "name": "to",
                    "type": "address"
                },
                {
                    "indexed": false,
                    "internalType": "uint256",
                    "name": "price",
                    "type": "uint256"
                }
            ],
            "name": "PurchaseEvent",
            "type": "event"
        },
        {
            "anonymous": false,
            "inputs": [
                {
                    "indexed": false,
                    "internalType": "uint256",
                    "name": "seedNumber",
                    "type": "uint256"
                },
                {
                    "indexed": false,
                    "internalType": "bool",
                    "name": "isForSale",
                    "type": "bool"
                },
                {
                    "indexed": false,
                    "internalType": "uint256",
                    "name": "price",
                    "type": "uint256"
                }
            ],
            "name": "SaleToggle",
            "type": "event"
        },
        {
            "anonymous": false,
            "inputs": [
                {
                    "indexed": true,
                    "internalType": "address",
                    "name": "from",
                    "type": "address"
                },
                {
                    "indexed": true,
                    "internalType": "address",
                    "name": "to",
                    "type": "address"
                },
                {
                    "indexed": true,
                    "internalType": "uint256",
                    "name": "tokenId",
                    "type": "uint256"
                }
            ],
            "name": "Transfer",
            "type": "event"
        },
        {
            "inputs": [],
            "name": "SEED_erc20_contract",
            "outputs": [
                {
                    "internalType": "address",
                    "name": "",
                    "type": "address"
                }
            ],
            "stateMutability": "view",
            "type": "function"
        },
        {
            "inputs": [
                {
                    "internalType": "address",
                    "name": "_toAdd",
                    "type": "address"
                }
            ],
            "name": "addAuthorized",
            "outputs": [],
            "stateMutability": "nonpayable",
            "type": "function"
        },
        {
            "inputs": [
                {
                    "internalType": "uint256",
                    "name": "",
                    "type": "uint256"
                }
            ],
            "name": "allBonsai",
            "outputs": [
                {
                    "internalType": "uint256",
                    "name": "tokenId",
                    "type": "uint256"
                },
                {
                    "internalType": "address",
                    "name": "mintedBy",
                    "type": "address"
                },
                {
                    "internalType": "address",
                    "name": "currentOwner",
                    "type": "address"
                },
                {
                    "internalType": "uint256",
                    "name": "previousPrice",
                    "type": "uint256"
                },
                {
                    "internalType": "uint256",
                    "name": "price",
                    "type": "uint256"
                },
                {
                    "internalType": "uint256",
                    "name": "numberOfTransfers",
                    "type": "uint256"
                },
                {
                    "internalType": "bool",
                    "name": "forSale",
                    "type": "bool"
                },
                {
                    "internalType": "uint256",
                    "name": "cm",
                    "type": "uint256"
                }
            ],
            "stateMutability": "view",
            "type": "function"
        },
        {
            "inputs": [
                {
                    "internalType": "address",
                    "name": "to",
                    "type": "address"
                },
                {
                    "internalType": "uint256",
                    "name": "tokenId",
                    "type": "uint256"
                }
            ],
            "name": "approve",
            "outputs": [],
            "stateMutability": "nonpayable",
            "type": "function"
        },
        {
            "inputs": [
                {
                    "internalType": "address",
                    "name": "",
                    "type": "address"
                }
            ],
            "name": "authorized",
            "outputs": [
                {
                    "internalType": "bool",
                    "name": "",
                    "type": "bool"
                }
            ],
            "stateMutability": "view",
            "type": "function"
        },
        {
            "inputs": [
                {
                    "internalType": "address",
                    "name": "owner",
                    "type": "address"
                }
            ],
            "name": "balanceOf",
            "outputs": [
                {
                    "internalType": "uint256",
                    "name": "",
                    "type": "uint256"
                }
            ],
            "stateMutability": "view",
            "type": "function"
        },
        {
            "inputs": [],
            "name": "baseURL",
            "outputs": [
                {
                    "internalType": "string",
                    "name": "",
                    "type": "string"
                }
            ],
            "stateMutability": "view",
            "type": "function"
        },
        {
            "inputs": [
                {
                    "internalType": "uint256",
                    "name": "_tokenId",
                    "type": "uint256"
                }
            ],
            "name": "buyToken",
            "outputs": [],
            "stateMutability": "payable",
            "type": "function"
        },
        {
            "inputs": [
                {
                    "internalType": "string",
                    "name": "url",
                    "type": "string"
                }
            ],
            "name": "changeUrl",
            "outputs": [],
            "stateMutability": "nonpayable",
            "type": "function"
        },
        {
            "inputs": [
                {
                    "internalType": "address",
                    "name": "",
                    "type": "address"
                }
            ],
            "name": "excludedList",
            "outputs": [
                {
                    "internalType": "bool",
                    "name": "",
                    "type": "bool"
                }
            ],
            "stateMutability": "view",
            "type": "function"
        },
        {
            "inputs": [],
            "name": "getAllSaleTokens",
            "outputs": [
                {
                    "internalType": "uint256[]",
                    "name": "",
                    "type": "uint256[]"
                }
            ],
            "stateMutability": "view",
            "type": "function"
        },
        {
            "inputs": [
                {
                    "internalType": "uint256",
                    "name": "tokenId",
                    "type": "uint256"
                }
            ],
            "name": "getApproved",
            "outputs": [
                {
                    "internalType": "address",
                    "name": "",
                    "type": "address"
                }
            ],
            "stateMutability": "view",
            "type": "function"
        },
        {
            "inputs": [
                {
                    "internalType": "address",
                    "name": "_contractOwner",
                    "type": "address"
                },
                {
                    "internalType": "address",
                    "name": "_royaltyReceiver",
                    "type": "address"
                },
                {
                    "internalType": "uint256",
                    "name": "_royaltyPercentage",
                    "type": "uint256"
                },
                {
                    "internalType": "uint256",
                    "name": "_mintFeeAmount",
                    "type": "uint256"
                },
                {
                    "internalType": "string",
                    "name": "_baseURL",
                    "type": "string"
                },
                {
                    "internalType": "address",
                    "name": "_gbContractAddress",
                    "type": "address"
                },
                {
                    "internalType": "bool",
                    "name": "_openForSEED",
                    "type": "bool"
                },
                {
                    "internalType": "bool",
                    "name": "_openForPublic",
                    "type": "bool"
                }
            ],
            "name": "initialize",
            "outputs": [],
            "stateMutability": "nonpayable",
            "type": "function"
        },
        {
            "inputs": [
                {
                    "internalType": "address",
                    "name": "owner",
                    "type": "address"
                },
                {
                    "internalType": "address",
                    "name": "operator",
                    "type": "address"
                }
            ],
            "name": "isApprovedForAll",
            "outputs": [
                {
                    "internalType": "bool",
                    "name": "",
                    "type": "bool"
                }
            ],
            "stateMutability": "view",
            "type": "function"
        },
        {
            "inputs": [],
            "name": "maxSupply",
            "outputs": [
                {
                    "internalType": "uint256",
                    "name": "",
                    "type": "uint256"
                }
            ],
            "stateMutability": "view",
            "type": "function"
        },
        {
            "inputs": [
                {
                    "internalType": "uint256",
                    "name": "numberOfToken",
                    "type": "uint256"
                }
            ],
            "name": "mint",
            "outputs": [],
            "stateMutability": "payable",
            "type": "function"
        },
        {
            "inputs": [],
            "name": "mintFeeAmount",
            "outputs": [
                {
                    "internalType": "uint256",
                    "name": "",
                    "type": "uint256"
                }
            ],
            "stateMutability": "view",
            "type": "function"
        },
        {
            "inputs": [],
            "name": "name",
            "outputs": [
                {
                    "internalType": "string",
                    "name": "",
                    "type": "string"
                }
            ],
            "stateMutability": "view",
            "type": "function"
        },
        {
            "inputs": [],
            "name": "openForPublic",
            "outputs": [
                {
                    "internalType": "bool",
                    "name": "",
                    "type": "bool"
                }
            ],
            "stateMutability": "view",
            "type": "function"
        },
        {
            "inputs": [],
            "name": "openForSEED",
            "outputs": [
                {
                    "internalType": "bool",
                    "name": "",
                    "type": "bool"
                }
            ],
            "stateMutability": "view",
            "type": "function"
        },
        {
            "inputs": [
                {
                    "internalType": "uint256",
                    "name": "tokenId",
                    "type": "uint256"
                }
            ],
            "name": "ownerOf",
            "outputs": [
                {
                    "internalType": "address",
                    "name": "",
                    "type": "address"
                }
            ],
            "stateMutability": "view",
            "type": "function"
        },
        {
            "inputs": [
                {
                    "internalType": "address",
                    "name": "_toRemove",
                    "type": "address"
                }
            ],
            "name": "removeAuthorized",
            "outputs": [],
            "stateMutability": "nonpayable",
            "type": "function"
        },
        {
            "inputs": [],
            "name": "royaltyPercentage",
            "outputs": [
                {
                    "internalType": "uint256",
                    "name": "",
                    "type": "uint256"
                }
            ],
            "stateMutability": "view",
            "type": "function"
        },
        {
            "inputs": [
                {
                    "internalType": "address",
                    "name": "from",
                    "type": "address"
                },
                {
                    "internalType": "address",
                    "name": "to",
                    "type": "address"
                },
                {
                    "internalType": "uint256",
                    "name": "tokenId",
                    "type": "uint256"
                }
            ],
            "name": "safeTransferFrom",
            "outputs": [],
            "stateMutability": "nonpayable",
            "type": "function"
        },
        {
            "inputs": [
                {
                    "internalType": "address",
                    "name": "from",
                    "type": "address"
                },
                {
                    "internalType": "address",
                    "name": "to",
                    "type": "address"
                },
                {
                    "internalType": "uint256",
                    "name": "tokenId",
                    "type": "uint256"
                },
                {
                    "internalType": "bytes",
                    "name": "_data",
                    "type": "bytes"
                }
            ],
            "name": "safeTransferFrom",
            "outputs": [],
            "stateMutability": "nonpayable",
            "type": "function"
        },
        {
            "inputs": [],
            "name": "seedHoldersMaxMint",
            "outputs": [
                {
                    "internalType": "uint256",
                    "name": "",
                    "type": "uint256"
                }
            ],
            "stateMutability": "view",
            "type": "function"
        },
        {
            "inputs": [],
            "name": "seedTotalSupply",
            "outputs": [
                {
                    "internalType": "uint256",
                    "name": "",
                    "type": "uint256"
                }
            ],
            "stateMutability": "view",
            "type": "function"
        },
        {
            "inputs": [
                {
                    "internalType": "address",
                    "name": "",
                    "type": "address"
                }
            ],
            "name": "seedholders",
            "outputs": [
                {
                    "internalType": "bool",
                    "name": "",
                    "type": "bool"
                }
            ],
            "stateMutability": "view",
            "type": "function"
        },
        {
            "inputs": [
                {
                    "internalType": "address",
                    "name": "operator",
                    "type": "address"
                },
                {
                    "internalType": "bool",
                    "name": "approved",
                    "type": "bool"
                }
            ],
            "name": "setApprovalForAll",
            "outputs": [],
            "stateMutability": "nonpayable",
            "type": "function"
        },
        {
            "inputs": [
                {
                    "internalType": "uint256",
                    "name": "_tokenId",
                    "type": "uint256"
                },
                {
                    "internalType": "uint256",
                    "name": "_newCm",
                    "type": "uint256"
                }
            ],
            "name": "setCm",
            "outputs": [],
            "stateMutability": "nonpayable",
            "type": "function"
        },
        {
            "inputs": [
                {
                    "internalType": "uint256",
                    "name": "_tokenId",
                    "type": "uint256"
                },
                {
                    "internalType": "uint256",
                    "name": "_newPrice",
                    "type": "uint256"
                },
                {
                    "internalType": "bool",
                    "name": "isForSale",
                    "type": "bool"
                }
            ],
            "name": "setPriceForSale",
            "outputs": [],
            "stateMutability": "nonpayable",
            "type": "function"
        },
        {
            "inputs": [
                {
                    "internalType": "bytes4",
                    "name": "interfaceId",
                    "type": "bytes4"
                }
            ],
            "name": "supportsInterface",
            "outputs": [
                {
                    "internalType": "bool",
                    "name": "",
                    "type": "bool"
                }
            ],
            "stateMutability": "view",
            "type": "function"
        },
        {
            "inputs": [],
            "name": "symbol",
            "outputs": [
                {
                    "internalType": "string",
                    "name": "",
                    "type": "string"
                }
            ],
            "stateMutability": "view",
            "type": "function"
        },
        {
            "inputs": [
                {
                    "internalType": "address",
                    "name": "owner",
                    "type": "address"
                },
                {
                    "internalType": "uint256",
                    "name": "index",
                    "type": "uint256"
                }
            ],
            "name": "tokenOfOwnerByIndex",
            "outputs": [
                {
                    "internalType": "uint256",
                    "name": "",
                    "type": "uint256"
                }
            ],
            "stateMutability": "view",
            "type": "function"
        },
        {
            "inputs": [
                {
                    "internalType": "uint256",
                    "name": "tokenId",
                    "type": "uint256"
                }
            ],
            "name": "tokenURI",
            "outputs": [
                {
                    "internalType": "string",
                    "name": "",
                    "type": "string"
                }
            ],
            "stateMutability": "view",
            "type": "function"
        },
        {
            "inputs": [],
            "name": "totalSupply",
            "outputs": [
                {
                    "internalType": "uint256",
                    "name": "",
                    "type": "uint256"
                }
            ],
            "stateMutability": "view",
            "type": "function"
        },
        {
            "inputs": [
                {
                    "internalType": "address",
                    "name": "from",
                    "type": "address"
                },
                {
                    "internalType": "address",
                    "name": "to",
                    "type": "address"
                },
                {
                    "internalType": "uint256",
                    "name": "tokenId",
                    "type": "uint256"
                }
            ],
            "name": "transferFrom",
            "outputs": [],
            "stateMutability": "nonpayable",
            "type": "function"
        }
    ],
    "bytecode": "0x608060405234801561001057600080fd5b50612f04806100206000396000f3fe60806040526004361061021a5760003560e01c8063948f76ee11610123578063b88d4fde116100ab578063e985e9c51161006f578063e985e9c5146106b4578063ec25b010146106fd578063ee1a51681461071d578063eff3c4e71461073f578063f6f566b61461075e57600080fd5b8063b88d4fde1461060e578063b91816111461062e578063c87b56dd1461065e578063cf1c316a1461067e578063d5abeb011461069e57600080fd5b8063a0712d68116100f2578063a0712d6814610590578063a22cb465146105a3578063a54dbcf6146105c3578063ac4732b9146105e3578063adadab53146105f957600080fd5b8063948f76ee1461047d57806395d89b41146104ad5780639d5e213c146104c25780639f3f3fa5146104d857600080fd5b806342842e0e116101a65780636352211e116101755780636352211e146103e75780636b53e0341461040757806370a08231146104275780637eb01a58146104475780638a71bb2d1461046757600080fd5b806342842e0e14610357578063485d7d94146103775780635600d2fa146103975780635f823d28146103c757600080fd5b806318160ddd116101ed57806318160ddd146102d057806323b872dd146102ef5780632d296bf11461030f5780632f745c591461032257806340c84b0e1461034257600080fd5b806301ffc9a71461021f57806306fdde0314610254578063081812fc14610276578063095ea7b3146102ae575b600080fd5b34801561022b57600080fd5b5061023f61023a366004612ac6565b610778565b60405190151581526020015b60405180910390f35b34801561026057600080fd5b506102696107ca565b60405161024b9190612c7a565b34801561028257600080fd5b50610296610291366004612b31565b61085c565b6040516001600160a01b03909116815260200161024b565b3480156102ba57600080fd5b506102ce6102c9366004612a9d565b6108e9565b005b3480156102dc57600080fd5b5060a5545b60405190815260200161024b565b3480156102fb57600080fd5b506102ce61030a36600461291e565b6109ff565b6102ce61031d366004612b31565b610a30565b34801561032e57600080fd5b506102e161033d366004612a9d565b610cba565b34801561034e57600080fd5b50610269610d2c565b34801561036357600080fd5b506102ce61037236600461291e565b610dba565b34801561038357600080fd5b506102ce6103923660046128d2565b610dd5565b3480156103a357600080fd5b5061023f6103b23660046128d2565b609a6020526000908152604090205460ff1681565b3480156103d357600080fd5b506102ce6103e2366004612afe565b610e65565b3480156103f357600080fd5b50610296610402366004612b31565b610ec3565b34801561041357600080fd5b50609c54610296906001600160a01b031681565b34801561043357600080fd5b506102e16104423660046128d2565b610f3a565b34801561045357600080fd5b506102ce610462366004612b6a565b610fc1565b34801561047357600080fd5b506102e160995481565b34801561048957600080fd5b5061023f6104983660046128d2565b609b6020526000908152604090205460ff1681565b3480156104b957600080fd5b50610269611257565b3480156104ce57600080fd5b506102e161038481565b3480156104e457600080fd5b506105476104f3366004612b31565b60a2602052600090815260409020805460018201546002830154600384015460048501546005860154600687015460079097015495966001600160a01b0395861696959094169492939192909160ff169088565b604080519889526001600160a01b0397881660208a015295909616948701949094526060860192909252608085015260a0840152151560c083015260e08201526101000161024b565b6102ce61059e366004612b31565b611266565b3480156105af57600080fd5b506102ce6105be366004612a74565b611545565b3480156105cf57600080fd5b506102ce6105de3660046129d2565b611550565b3480156105ef57600080fd5b506102e1609e5481565b34801561060557600080fd5b50609d546102e1565b34801561061a57600080fd5b506102ce610629366004612959565b611707565b34801561063a57600080fd5b5061023f6106493660046128d2565b60a76020526000908152604090205460ff1681565b34801561066a57600080fd5b50610269610679366004612b31565b61173f565b34801561068a57600080fd5b506102ce6106993660046128d2565b61174a565b3480156106aa57600080fd5b506102e161271081565b3480156106c057600080fd5b5061023f6106cf3660046128ec565b6001600160a01b039182166000908152606a6020908152604080832093909416825291909152205460ff1690565b34801561070957600080fd5b506102ce610718366004612b49565b6117c7565b34801561072957600080fd5b506107326119cc565b60405161024b9190612c36565b34801561074b57600080fd5b5060a05461023f90610100900460ff1681565b34801561076a57600080fd5b5060a05461023f9060ff1681565b60006001600160e01b031982166380ac58cd60e01b14806107a957506001600160e01b03198216635b5e139f60e01b145b806107c457506301ffc9a760e01b6001600160e01b03198316145b92915050565b6060606580546107d990612e09565b80601f016020809104026020016040519081016040528092919081815260200182805461080590612e09565b80156108525780601f1061082757610100808354040283529160200191610852565b820191906000526020600020905b81548152906001019060200180831161083557829003601f168201915b5050505050905090565b600061086782611ac0565b6108cd5760405162461bcd60e51b815260206004820152602c60248201527f4552433732313a20617070726f76656420717565727920666f72206e6f6e657860448201526b34b9ba32b73a103a37b5b2b760a11b60648201526084015b60405180910390fd5b506000908152606960205260409020546001600160a01b031690565b60006108f482610ec3565b9050806001600160a01b0316836001600160a01b031614156109625760405162461bcd60e51b815260206004820152602160248201527f4552433732313a20617070726f76616c20746f2063757272656e74206f776e656044820152603960f91b60648201526084016108c4565b336001600160a01b038216148061097e575061097e81336106cf565b6109f05760405162461bcd60e51b815260206004820152603860248201527f4552433732313a20617070726f76652063616c6c6572206973206e6f74206f7760448201527f6e6572206e6f7220617070726f76656420666f7220616c6c000000000000000060648201526084016108c4565b6109fa8383611add565b505050565b610a093382611b4b565b610a255760405162461bcd60e51b81526004016108c490612cdf565b6109fa838383611c35565b610a3981611ac0565b610a4257600080fd5b6000610a4d82610ec3565b90506001600160a01b038116610a6257600080fd5b6001600160a01b038116331415610a7857600080fd5b600082815260a260209081526040918290208251610100810184528154815260018201546001600160a01b039081169382019390935260028201549092169282019290925260038201546060820152600482015460808201819052600583015460a0830152600683015460ff16151560c083015260079092015460e082015290341015610b0457600080fd5b8060c00151610b1257600080fd5b6099543490600090606490610b279084612da7565b610b319190612d93565b90506000610b3f8284612dc6565b6098546040519192506001600160a01b03169083156108fc029084906000818181858888f19350505050158015610b7a573d6000803e3d6000fd5b5083604001516001600160a01b03166108fc829081150290604051600060405180830381858888f19350505050158015610bb8573d6000803e3d6000fd5b5060808401805160608601908152600088815260a2602090815260409182902088518155908801516001820180546001600160a01b03199081166001600160a01b039384161790915592890151600283018054909416911617909155905160038201559051600482015560a0850151600582015560c085015160068201805460ff191691151591909117905560e0850151600790910155610c5a853388611c35565b60408481015160808087015183518a81526001600160a01b0390931660208401523383850152606083015291517fdc84c3c75a393011959e6391215e5b01982de6ad00f83b8b26ac7c52a5844b22929181900390910190a1505050505050565b6000610cc583610f3a565b8210610d035760405162461bcd60e51b815260206004820152600d60248201526c6f7574206f6620626f756e647360981b60448201526064016108c4565b506001600160a01b0391909116600090815260a360209081526040808320938352929052205490565b609f8054610d3990612e09565b80601f0160208091040260200160405190810160405280929190818152602001828054610d6590612e09565b8015610db25780601f10610d8757610100808354040283529160200191610db2565b820191906000526020600020905b815481529060010190602001808311610d9557829003601f168201915b505050505081565b6109fa83838360405180602001604052806000815250611707565b6097546001600160a01b03163314610e1b5760405162461bcd60e51b81526020600482015260096024820152682737ba1037bbb732b960b91b60448201526064016108c4565b6001600160a01b038116610e2e57600080fd5b6001600160a01b038116331415610e4457600080fd5b6001600160a01b0316600090815260a760205260409020805460ff19169055565b6097546001600160a01b03163314610eac5760405162461bcd60e51b815260206004820152600a60248201526927b7363c9037bbb732b960b11b60448201526064016108c4565b8051610ebf90609f906020840190612778565b5050565b6000818152606760205260408120546001600160a01b0316806107c45760405162461bcd60e51b815260206004820152602960248201527f4552433732313a206f776e657220717565727920666f72206e6f6e657869737460448201526832b73a103a37b5b2b760b91b60648201526084016108c4565b60006001600160a01b038216610fa55760405162461bcd60e51b815260206004820152602a60248201527f4552433732313a2062616c616e636520717565727920666f7220746865207a65604482015269726f206164647265737360b01b60648201526084016108c4565b506001600160a01b031660009081526068602052604090205490565b610fca83611ac0565b6110085760405162461bcd60e51b815260206004820152600f60248201526e1d1bdad95b881b9bdd08199bdd5b99608a1b60448201526064016108c4565b600061101384610ec3565b90506001600160a01b03811633146110595760405162461bcd60e51b81526020600482015260096024820152683737ba1037bbb732b960b91b60448201526064016108c4565b600060a2600086815260200190815260200160002060405180610100016040529081600082015481526020016001820160009054906101000a90046001600160a01b03166001600160a01b03166001600160a01b031681526020016002820160009054906101000a90046001600160a01b03166001600160a01b03166001600160a01b031681526020016003820154815260200160048201548152602001600582015481526020016006820160009054906101000a900460ff16151515158152602001600782015481525050905083816080018181525050828160c00190151590811515815250508060a260008781526020019081526020016000206000820151816000015560208201518160010160006101000a8154816001600160a01b0302191690836001600160a01b0316021790555060408201518160020160006101000a8154816001600160a01b0302191690836001600160a01b03160217905550606082015181600301556080820151816004015560a0820151816005015560c08201518160060160006101000a81548160ff02191690831515021790555060e082015181600701559050507f64b12cff1b4037cf4ed0ff891d2f6f0ee06c004d6bac81d0e718c447a93fe16e858486604051611248939291909283529015156020830152604082015260600190565b60405180910390a15050505050565b6060606680546107d990612e09565b60a05460ff6101009091041615156001146112ae5760405162461bcd60e51b81526020600482015260086024820152673737ba1037b832b760c11b60448201526064016108c4565b336112b857600080fd5b60a554612710906112ca908390612d7b565b11156113055760405162461bcd60e51b815260206004820152600a6024820152696d617820737570706c7960b01b60448201526064016108c4565b6000811161133d5760405162461bcd60e51b81526020600482015260056024820152644d696e203160d81b60448201526064016108c4565b600c8111156113775760405162461bcd60e51b815260206004820152600660248201526526b0bc10189960d11b60448201526064016108c4565b336000908152609a602052604081205460ff1661141d5781609e5461139c9190612da7565b90508034146113de5760405162461bcd60e51b815260206004820152600e60248201526d4e6f7420656e6f7567682066656560901b60448201526064016108c4565b6098546040516001600160a01b03909116903480156108fc02916000818181858888f19350505050158015611417573d6000803e3d6000fd5b5061144b565b60405133903480156108fc02916000818181858888f19350505050158015611449573d6000803e3d6000fd5b505b60015b8281116109fa5761146360a180546001019055565b600061146e60a15490565b905061147a3382611ddc565b6040805161010081018252828152336020808301828152838501928352600060608501818152608086018a815260a0870183815260c08801848152606460e08a019081529a855260a2909652979092209551865591516001860180546001600160a01b03199081166001600160a01b039384161790915594516002870180549096169116179093555160038401559051600483015591516005820155905160068201805460ff191691151591909117905590516007909101558061153d81612e44565b91505061144e565b610ebf338383611df6565b600054610100900460ff1661156b5760005460ff161561156f565b303b155b6115d25760405162461bcd60e51b815260206004820152602e60248201527f496e697469616c697a61626c653a20636f6e747261637420697320616c72656160448201526d191e481a5b9a5d1a585b1a5e995960921b60648201526084016108c4565b600054610100900460ff161580156115f4576000805461ffff19166101011790555b611636604051806040016040528060048152602001631cd9595960e21b815250604051806040016040528060048152602001631cd9595960e21b815250611ec5565b6099879055609780546001600160a01b03808c166001600160a01b0319928316811790935560988054918c16919092168117909155609e8890556000918252609a60209081526040808420805460ff19908116600190811790925593855293208054909216909217905585516116b291609f9190880190612778565b50609c80546001600160a01b0319166001600160a01b03861617905560a0805461ffff191684151561ff001916176101008415150217905580156116fc576000805461ff00191690555b505050505050505050565b6117113383611b4b565b61172d5760405162461bcd60e51b81526004016108c490612cdf565b61173984848484611ef6565b50505050565b60606107c482611f29565b6097546001600160a01b031633146117905760405162461bcd60e51b81526020600482015260096024820152682737ba1037bbb732b960b91b60448201526064016108c4565b6001600160a01b0381166117a357600080fd5b6001600160a01b0316600090815260a760205260409020805460ff19166001179055565b33600090815260a7602052604090205460ff16806117ef57506097546001600160a01b031633145b61182c5760405162461bcd60e51b815260206004820152600e60248201526d139bdd08185d5d1a1bdc9a5e995960921b60448201526064016108c4565b600060a2600084815260200190815260200160002060405180610100016040529081600082015481526020016001820160009054906101000a90046001600160a01b03166001600160a01b03166001600160a01b031681526020016002820160009054906101000a90046001600160a01b03166001600160a01b03166001600160a01b031681526020016003820154815260200160048201548152602001600582015481526020016006820160009054906101000a900460ff161515151581526020016007820154815250509050818160e00181815250508060a260008581526020019081526020016000206000820151816000015560208201518160010160006101000a8154816001600160a01b0302191690836001600160a01b0316021790555060408201518160020160006101000a8154816001600160a01b0302191690836001600160a01b03160217905550606082015181600301556080820151816004015560a0820151816005015560c08201518160060160006101000a81548160ff02191690831515021790555060e08201518160070155905050505050565b606060006119d960a55490565b905060008167ffffffffffffffff811115611a0457634e487b7160e01b600052604160045260246000fd5b604051908082528060200260200182016040528015611a2d578160200160208202803683370190505b509050600060015b838111611ab757600081815260a2602052604090206006015460ff16151560011415611aa557600081815260a260205260409020548351849084908110611a8c57634e487b7160e01b600052603260045260246000fd5b602090810291909101015281611aa181612e44565b9250505b80611aaf81612e44565b915050611a35565b50909392505050565b6000908152606760205260409020546001600160a01b0316151590565b600081815260696020526040902080546001600160a01b0319166001600160a01b0384169081179091558190611b1282610ec3565b6001600160a01b03167f8c5be1e5ebec7d5bd14f71427d1e84f3dd0314c0f7b2291e5b200ac8c7c3b92560405160405180910390a45050565b6000611b5682611ac0565b611bb75760405162461bcd60e51b815260206004820152602c60248201527f4552433732313a206f70657261746f7220717565727920666f72206e6f6e657860448201526b34b9ba32b73a103a37b5b2b760a11b60648201526084016108c4565b6000611bc283610ec3565b9050806001600160a01b0316846001600160a01b03161480611bfd5750836001600160a01b0316611bf28461085c565b6001600160a01b0316145b80611c2d57506001600160a01b038082166000908152606a602090815260408083209388168352929052205460ff165b949350505050565b826001600160a01b0316611c4882610ec3565b6001600160a01b031614611cac5760405162461bcd60e51b815260206004820152602560248201527f4552433732313a207472616e736665722066726f6d20696e636f72726563742060448201526437bbb732b960d91b60648201526084016108c4565b6001600160a01b038216611d0e5760405162461bcd60e51b8152602060048201526024808201527f4552433732313a207472616e7366657220746f20746865207a65726f206164646044820152637265737360e01b60648201526084016108c4565b611d19838383611ff4565b611d24600082611add565b6001600160a01b0383166000908152606860205260408120805460019290611d4d908490612dc6565b90915550506001600160a01b0382166000908152606860205260408120805460019290611d7b908490612d7b565b909155505060008181526067602052604080822080546001600160a01b0319166001600160a01b0386811691821790925591518493918716917fddf252ad1be2c89b69c2b068fc378daa952ba7f163c4a11628f55a4df523b3ef91a4505050565b610ebf8282604051806020016040528060008152506121c8565b816001600160a01b0316836001600160a01b03161415611e585760405162461bcd60e51b815260206004820152601960248201527f4552433732313a20617070726f766520746f2063616c6c65720000000000000060448201526064016108c4565b6001600160a01b038381166000818152606a6020908152604080832094871680845294825291829020805460ff191686151590811790915591519182527f17307eab39ab6107e8899845ad3d59bd9653f200f220920489ca2b5937696c31910160405180910390a3505050565b600054610100900460ff16611eec5760405162461bcd60e51b81526004016108c490612d30565b610ebf82826121fb565b611f01848484611c35565b611f0d84848484612249565b6117395760405162461bcd60e51b81526004016108c490612c8d565b6060611f3482611ac0565b611f985760405162461bcd60e51b815260206004820152602f60248201527f4552433732314d657461646174613a2055524920717565727920666f72206e6f60448201526e3732bc34b9ba32b73a103a37b5b2b760891b60648201526084016108c4565b6000611fa2612356565b90506000815111611fc25760405180602001604052806000815250611fed565b80611fcc84612365565b604051602001611fdd929190612bca565b6040516020818303038152906040525b9392505050565b600081815260a26020908152604091829020825161010081018452815481526001808301546001600160a01b03908116948301949094526003830154606083015260048301546080830152600583015460a08301818152600685015460ff16151560c085015260079094015460e084015293871694820194909452929161207c908390612d7b565b905250600060c0820181815283825260a2602090815260409283902084518155908401516001820180546001600160a01b03199081166001600160a01b03938416179091559385015160028301805490951690821617909355606084015160038201556080840151600482015560a08401516005820155905160068201805460ff191691151591909117905560e08301516007909101558416612166576121618260a58054600083815260a660205260408120829055600182018355919091527fb29a2b3b6f2ff1b765777a231725941da5072cc4fcc30ac4a2ce09706e8ddeff0155565b612189565b826001600160a01b0316846001600160a01b03161461218957612189848361247f565b6001600160a01b0383166121a5576121a08261251c565b611739565b836001600160a01b0316836001600160a01b0316146117395761173983836125f5565b6121d28383612639565b6121df6000848484612249565b6109fa5760405162461bcd60e51b81526004016108c490612c8d565b600054610100900460ff166122225760405162461bcd60e51b81526004016108c490612d30565b8151612235906065906020850190612778565b5080516109fa906066906020840190612778565b60006001600160a01b0384163b1561234b57604051630a85bd0160e11b81526001600160a01b0385169063150b7a029061228d903390899088908890600401612bf9565b602060405180830381600087803b1580156122a757600080fd5b505af19250505080156122d7575060408051601f3d908101601f191682019092526122d491810190612ae2565b60015b612331573d808015612305576040519150601f19603f3d011682016040523d82523d6000602084013e61230a565b606091505b5080516123295760405162461bcd60e51b81526004016108c490612c8d565b805181602001fd5b6001600160e01b031916630a85bd0160e11b149050611c2d565b506001949350505050565b6060609f80546107d990612e09565b6060816123895750506040805180820190915260018152600360fc1b602082015290565b8160005b81156123b3578061239d81612e44565b91506123ac9050600a83612d93565b915061238d565b60008167ffffffffffffffff8111156123dc57634e487b7160e01b600052604160045260246000fd5b6040519080825280601f01601f191660200182016040528015612406576020820181803683370190505b5090505b8415611c2d5761241b600183612dc6565b9150612428600a86612e5f565b612433906030612d7b565b60f81b81838151811061245657634e487b7160e01b600052603260045260246000fd5b60200101906001600160f81b031916908160001a905350612478600a86612d93565b945061240a565b6000600161248c84610f3a565b6124969190612dc6565b600083815260a460205260409020549091508082146124e9576001600160a01b038416600090815260a360209081526040808320858452825280832054848452818420819055835260a490915290208190555b50600091825260a4602090815260408084208490556001600160a01b03909416835260a381528383209183525290812055565b60a55460009061252e90600190612dc6565b600083815260a6602052604081205460a5805493945090928490811061256457634e487b7160e01b600052603260045260246000fd5b906000526020600020015490508060a5838154811061259357634e487b7160e01b600052603260045260246000fd5b600091825260208083209091019290925582815260a6909152604080822084905585825281205560a58054806125d957634e487b7160e01b600052603160045260246000fd5b6001900381819060005260206000200160009055905550505050565b600061260083610f3a565b6001600160a01b03909316600090815260a360209081526040808320868452825280832085905593825260a49052919091209190915550565b6001600160a01b03821661268f5760405162461bcd60e51b815260206004820181905260248201527f4552433732313a206d696e7420746f20746865207a65726f206164647265737360448201526064016108c4565b61269881611ac0565b156126e55760405162461bcd60e51b815260206004820152601c60248201527f4552433732313a20746f6b656e20616c7265616479206d696e7465640000000060448201526064016108c4565b6126f160008383611ff4565b6001600160a01b038216600090815260686020526040812080546001929061271a908490612d7b565b909155505060008181526067602052604080822080546001600160a01b0319166001600160a01b03861690811790915590518392907fddf252ad1be2c89b69c2b068fc378daa952ba7f163c4a11628f55a4df523b3ef908290a45050565b82805461278490612e09565b90600052602060002090601f0160209004810192826127a657600085556127ec565b82601f106127bf57805160ff19168380011785556127ec565b828001600101855582156127ec579182015b828111156127ec5782518255916020019190600101906127d1565b506127f89291506127fc565b5090565b5b808211156127f857600081556001016127fd565b600067ffffffffffffffff8084111561282c5761282c612e9f565b604051601f8501601f19908116603f0116810190828211818310171561285457612854612e9f565b8160405280935085815286868601111561286d57600080fd5b858560208301376000602087830101525050509392505050565b80356001600160a01b038116811461289e57600080fd5b919050565b8035801515811461289e57600080fd5b600082601f8301126128c3578081fd5b611fed83833560208501612811565b6000602082840312156128e3578081fd5b611fed82612887565b600080604083850312156128fe578081fd5b61290783612887565b915061291560208401612887565b90509250929050565b600080600060608486031215612932578081fd5b61293b84612887565b925061294960208501612887565b9150604084013590509250925092565b6000806000806080858703121561296e578081fd5b61297785612887565b935061298560208601612887565b925060408501359150606085013567ffffffffffffffff8111156129a7578182fd5b8501601f810187136129b7578182fd5b6129c687823560208401612811565b91505092959194509250565b600080600080600080600080610100898b0312156129ee578384fd5b6129f789612887565b9750612a0560208a01612887565b96506040890135955060608901359450608089013567ffffffffffffffff811115612a2e578485fd5b612a3a8b828c016128b3565b945050612a4960a08a01612887565b9250612a5760c08a016128a3565b9150612a6560e08a016128a3565b90509295985092959890939650565b60008060408385031215612a86578182fd5b612a8f83612887565b9150612915602084016128a3565b60008060408385031215612aaf578182fd5b612ab883612887565b946020939093013593505050565b600060208284031215612ad7578081fd5b8135611fed81612eb5565b600060208284031215612af3578081fd5b8151611fed81612eb5565b600060208284031215612b0f578081fd5b813567ffffffffffffffff811115612b25578182fd5b611c2d848285016128b3565b600060208284031215612b42578081fd5b5035919050565b60008060408385031215612b5b578182fd5b50508035926020909101359150565b600080600060608486031215612b7e578081fd5b8335925060208401359150612b95604085016128a3565b90509250925092565b60008151808452612bb6816020860160208601612ddd565b601f01601f19169290920160200192915050565b60008351612bdc818460208801612ddd565b835190830190612bf0818360208801612ddd565b01949350505050565b6001600160a01b0385811682528416602082015260408101839052608060608201819052600090612c2c90830184612b9e565b9695505050505050565b6020808252825182820181905260009190848201906040850190845b81811015612c6e57835183529284019291840191600101612c52565b50909695505050505050565b602081526000611fed6020830184612b9e565b60208082526032908201527f4552433732313a207472616e7366657220746f206e6f6e20455243373231526560408201527131b2b4bb32b91034b6b83632b6b2b73a32b960711b606082015260800190565b60208082526031908201527f4552433732313a207472616e736665722063616c6c6572206973206e6f74206f6040820152701ddb995c881b9bdc88185c1c1c9bdd9959607a1b606082015260800190565b6020808252602b908201527f496e697469616c697a61626c653a20636f6e7472616374206973206e6f74206960408201526a6e697469616c697a696e6760a81b606082015260800190565b60008219821115612d8e57612d8e612e73565b500190565b600082612da257612da2612e89565b500490565b6000816000190483118215151615612dc157612dc1612e73565b500290565b600082821015612dd857612dd8612e73565b500390565b60005b83811015612df8578181015183820152602001612de0565b838111156117395750506000910152565b600181811c90821680612e1d57607f821691505b60208210811415612e3e57634e487b7160e01b600052602260045260246000fd5b50919050565b6000600019821415612e5857612e58612e73565b5060010190565b600082612e6e57612e6e612e89565b500690565b634e487b7160e01b600052601160045260246000fd5b634e487b7160e01b600052601260045260246000fd5b634e487b7160e01b600052604160045260246000fd5b6001600160e01b031981168114612ecb57600080fd5b5056fea26469706673582212208e514420474f2a606bc5c225346216c3ce8f4bd9f433a2181106344dd24ce6bf64736f6c63430008040033",
    "linkReferences": {},
    "deployedLinkReferences": {}
}