{
  "_format": "hh-sol-artifact-1",
  "contractName": "BonsaiV1",
  "sourceName": "contracts/BonsaiV1.sol",
  "abi": [
    {
      "anonymous": false,
      "inputs": [
        {
          "indexed": true,
          "internalType": "address",
          "name": "owner",
          "type": "address"
        },
        {
          "indexed": true,
          "internalType": "address",
          "name": "approved",
          "type": "address"
        },
        {
          "indexed": true,
          "internalType": "uint256",
          "name": "tokenId",
          "type": "uint256"
        }
      ],
      "name": "Approval",
      "type": "event"
    },
    {
      "anonymous": false,
      "inputs": [
        {
          "indexed": true,
          "internalType": "address",
          "name": "owner",
          "type": "address"
        },
        {
          "indexed": true,
          "internalType": "address",
          "name": "operator",
          "type": "address"
        },
        {
          "indexed": false,
          "internalType": "bool",
          "name": "approved",
          "type": "bool"
        }
      ],
      "name": "ApprovalForAll",
      "type": "event"
    },
    {
      "anonymous": false,
      "inputs": [
        {
          "indexed": false,
          "internalType": "uint256",
          "name": "seedNumber",
          "type": "uint256"
        },
        {
          "indexed": false,
          "internalType": "address",
          "name": "from",
          "type": "address"
        },
        {
          "indexed": false,
          "internalType": "address",
          "name": "to",
          "type": "address"
        },
        {
          "indexed": false,
          "internalType": "uint256",
          "name": "price",
          "type": "uint256"
        }
      ],
      "name": "PurchaseEvent",
      "type": "event"
    },
    {
      "anonymous": false,
      "inputs": [
        {
          "indexed": false,
          "internalType": "uint256",
          "name": "seedNumber",
          "type": "uint256"
        },
        {
          "indexed": false,
          "internalType": "bool",
          "name": "isForSale",
          "type": "bool"
        },
        {
          "indexed": false,
          "internalType": "uint256",
          "name": "price",
          "type": "uint256"
        }
      ],
      "name": "SaleToggle",
      "type": "event"
    },
    {
      "anonymous": false,
      "inputs": [
        {
          "indexed": true,
          "internalType": "address",
          "name": "from",
          "type": "address"
        },
        {
          "indexed": true,
          "internalType": "address",
          "name": "to",
          "type": "address"
        },
        {
          "indexed": true,
          "internalType": "uint256",
          "name": "tokenId",
          "type": "uint256"
        }
      ],
      "name": "Transfer",
      "type": "event"
    },
    {
      "anonymous": false,
      "inputs": [
        {
          "indexed": true,
          "internalType": "address",
          "name": "_holder",
          "type": "address"
        },
        {
          "indexed": false,
          "internalType": "uint256",
          "name": "_bal",
          "type": "uint256"
        },
        {
          "indexed": false,
          "internalType": "bool",
          "name": "_result",
          "type": "bool"
        }
      ],
      "name": "seedERC20Checked",
      "type": "event"
    },
    {
      "inputs": [],
      "name": "SEED_erc20_contract",
      "outputs": [
        {
          "internalType": "address",
          "name": "",
          "type": "address"
        }
      ],
      "stateMutability": "view",
      "type": "function"
    },
    {
      "inputs": [
        {
          "internalType": "address",
          "name": "_toAdd",
          "type": "address"
        }
      ],
      "name": "addAuthorized",
      "outputs": [],
      "stateMutability": "nonpayable",
      "type": "function"
    },
    {
      "inputs": [
        {
          "internalType": "uint256",
          "name": "",
          "type": "uint256"
        }
      ],
      "name": "allBonsai",
      "outputs": [
        {
          "internalType": "uint256",
          "name": "tokenId",
          "type": "uint256"
        },
        {
          "internalType": "address",
          "name": "mintedBy",
          "type": "address"
        },
        {
          "internalType": "address",
          "name": "currentOwner",
          "type": "address"
        },
        {
          "internalType": "uint256",
          "name": "previousPrice",
          "type": "uint256"
        },
        {
          "internalType": "uint256",
          "name": "price",
          "type": "uint256"
        },
        {
          "internalType": "uint256",
          "name": "numberOfTransfers",
          "type": "uint256"
        },
        {
          "internalType": "bool",
          "name": "forSale",
          "type": "bool"
        },
        {
          "internalType": "uint256",
          "name": "cm",
          "type": "uint256"
        }
      ],
      "stateMutability": "view",
      "type": "function"
    },
    {
      "inputs": [
        {
          "internalType": "address",
          "name": "to",
          "type": "address"
        },
        {
          "internalType": "uint256",
          "name": "tokenId",
          "type": "uint256"
        }
      ],
      "name": "approve",
      "outputs": [],
      "stateMutability": "nonpayable",
      "type": "function"
    },
    {
      "inputs": [
        {
          "internalType": "address",
          "name": "",
          "type": "address"
        }
      ],
      "name": "authorized",
      "outputs": [
        {
          "internalType": "bool",
          "name": "",
          "type": "bool"
        }
      ],
      "stateMutability": "view",
      "type": "function"
    },
    {
      "inputs": [
        {
          "internalType": "address",
          "name": "owner",
          "type": "address"
        }
      ],
      "name": "balanceOf",
      "outputs": [
        {
          "internalType": "uint256",
          "name": "",
          "type": "uint256"
        }
      ],
      "stateMutability": "view",
      "type": "function"
    },
    {
      "inputs": [],
      "name": "baseURL",
      "outputs": [
        {
          "internalType": "string",
          "name": "",
          "type": "string"
        }
      ],
      "stateMutability": "view",
      "type": "function"
    },
    {
      "inputs": [
        {
          "internalType": "uint256",
          "name": "_tokenId",
          "type": "uint256"
        }
      ],
      "name": "buyToken",
      "outputs": [],
      "stateMutability": "payable",
      "type": "function"
    },
    {
      "inputs": [
        {
          "internalType": "string",
          "name": "url",
          "type": "string"
        }
      ],
      "name": "changeUrl",
      "outputs": [],
      "stateMutability": "nonpayable",
      "type": "function"
    },
    {
      "inputs": [
        {
          "internalType": "address",
          "name": "",
          "type": "address"
        }
      ],
      "name": "excludedList",
      "outputs": [
        {
          "internalType": "bool",
          "name": "",
          "type": "bool"
        }
      ],
      "stateMutability": "view",
      "type": "function"
    },
    {
      "inputs": [],
      "name": "getAllSaleTokens",
      "outputs": [
        {
          "internalType": "uint256[]",
          "name": "",
          "type": "uint256[]"
        }
      ],
      "stateMutability": "view",
      "type": "function"
    },
    {
      "inputs": [
        {
          "internalType": "uint256",
          "name": "tokenId",
          "type": "uint256"
        }
      ],
      "name": "getApproved",
      "outputs": [
        {
          "internalType": "address",
          "name": "",
          "type": "address"
        }
      ],
      "stateMutability": "view",
      "type": "function"
    },
    {
      "inputs": [
        {
          "internalType": "address",
          "name": "_contractOwner",
          "type": "address"
        },
        {
          "internalType": "address",
          "name": "_royaltyReceiver",
          "type": "address"
        },
        {
          "internalType": "uint256",
          "name": "_royaltyPercentage",
          "type": "uint256"
        },
        {
          "internalType": "uint256",
          "name": "_mintFeeAmount",
          "type": "uint256"
        },
        {
          "internalType": "string",
          "name": "_baseURL",
          "type": "string"
        },
        {
          "internalType": "address",
          "name": "_seedContractAddress",
          "type": "address"
        },
        {
          "internalType": "bool",
          "name": "_openForSEED",
          "type": "bool"
        },
        {
          "internalType": "bool",
          "name": "_openForPublic",
          "type": "bool"
        }
      ],
      "name": "initialize",
      "outputs": [],
      "stateMutability": "nonpayable",
      "type": "function"
    },
    {
      "inputs": [
        {
          "internalType": "address",
          "name": "owner",
          "type": "address"
        },
        {
          "internalType": "address",
          "name": "operator",
          "type": "address"
        }
      ],
      "name": "isApprovedForAll",
      "outputs": [
        {
          "internalType": "bool",
          "name": "",
          "type": "bool"
        }
      ],
      "stateMutability": "view",
      "type": "function"
    },
    {
      "inputs": [],
      "name": "maxSupply",
      "outputs": [
        {
          "internalType": "uint256",
          "name": "",
          "type": "uint256"
        }
      ],
      "stateMutability": "view",
      "type": "function"
    },
    {
      "inputs": [
        {
          "internalType": "uint256",
          "name": "numberOfToken",
          "type": "uint256"
        }
      ],
      "name": "mint",
      "outputs": [],
      "stateMutability": "payable",
      "type": "function"
    },
    {
      "inputs": [],
      "name": "mintFeeAmount",
      "outputs": [
        {
          "internalType": "uint256",
          "name": "",
          "type": "uint256"
        }
      ],
      "stateMutability": "view",
      "type": "function"
    },
    {
      "inputs": [],
      "name": "name",
      "outputs": [
        {
          "internalType": "string",
          "name": "",
          "type": "string"
        }
      ],
      "stateMutability": "view",
      "type": "function"
    },
    {
      "inputs": [],
      "name": "openForPublic",
      "outputs": [
        {
          "internalType": "bool",
          "name": "",
          "type": "bool"
        }
      ],
      "stateMutability": "view",
      "type": "function"
    },
    {
      "inputs": [],
      "name": "openForSEED",
      "outputs": [
        {
          "internalType": "bool",
          "name": "",
          "type": "bool"
        }
      ],
      "stateMutability": "view",
      "type": "function"
    },
    {
      "inputs": [
        {
          "internalType": "uint256",
          "name": "tokenId",
          "type": "uint256"
        }
      ],
      "name": "ownerOf",
      "outputs": [
        {
          "internalType": "address",
          "name": "",
          "type": "address"
        }
      ],
      "stateMutability": "view",
      "type": "function"
    },
    {
      "inputs": [
        {
          "internalType": "address",
          "name": "_toRemove",
          "type": "address"
        }
      ],
      "name": "removeAuthorized",
      "outputs": [],
      "stateMutability": "nonpayable",
      "type": "function"
    },
    {
      "inputs": [],
      "name": "royaltyPercentage",
      "outputs": [
        {
          "internalType": "uint256",
          "name": "",
          "type": "uint256"
        }
      ],
      "stateMutability": "view",
      "type": "function"
    },
    {
      "inputs": [
        {
          "internalType": "address",
          "name": "from",
          "type": "address"
        },
        {
          "internalType": "address",
          "name": "to",
          "type": "address"
        },
        {
          "internalType": "uint256",
          "name": "tokenId",
          "type": "uint256"
        }
      ],
      "name": "safeTransferFrom",
      "outputs": [],
      "stateMutability": "nonpayable",
      "type": "function"
    },
    {
      "inputs": [
        {
          "internalType": "address",
          "name": "from",
          "type": "address"
        },
        {
          "internalType": "address",
          "name": "to",
          "type": "address"
        },
        {
          "internalType": "uint256",
          "name": "tokenId",
          "type": "uint256"
        },
        {
          "internalType": "bytes",
          "name": "_data",
          "type": "bytes"
        }
      ],
      "name": "safeTransferFrom",
      "outputs": [],
      "stateMutability": "nonpayable",
      "type": "function"
    },
    {
      "inputs": [],
      "name": "seedHoldersMaxMint",
      "outputs": [
        {
          "internalType": "uint256",
          "name": "",
          "type": "uint256"
        }
      ],
      "stateMutability": "view",
      "type": "function"
    },
    {
      "inputs": [],
      "name": "seedTotalSupply",
      "outputs": [
        {
          "internalType": "uint256",
          "name": "",
          "type": "uint256"
        }
      ],
      "stateMutability": "view",
      "type": "function"
    },
    {
      "inputs": [
        {
          "internalType": "address",
          "name": "",
          "type": "address"
        }
      ],
      "name": "seedholders",
      "outputs": [
        {
          "internalType": "bool",
          "name": "",
          "type": "bool"
        }
      ],
      "stateMutability": "view",
      "type": "function"
    },
    {
      "inputs": [
        {
          "internalType": "address",
          "name": "operator",
          "type": "address"
        },
        {
          "internalType": "bool",
          "name": "approved",
          "type": "bool"
        }
      ],
      "name": "setApprovalForAll",
      "outputs": [],
      "stateMutability": "nonpayable",
      "type": "function"
    },
    {
      "inputs": [
        {
          "internalType": "uint256",
          "name": "_tokenId",
          "type": "uint256"
        },
        {
          "internalType": "uint256",
          "name": "_newCm",
          "type": "uint256"
        }
      ],
      "name": "setCm",
      "outputs": [],
      "stateMutability": "nonpayable",
      "type": "function"
    },
    {
      "inputs": [
        {
          "internalType": "uint256",
          "name": "_tokenId",
          "type": "uint256"
        },
        {
          "internalType": "uint256",
          "name": "_newPrice",
          "type": "uint256"
        },
        {
          "internalType": "bool",
          "name": "isForSale",
          "type": "bool"
        }
      ],
      "name": "setPriceForSale",
      "outputs": [],
      "stateMutability": "nonpayable",
      "type": "function"
    },
    {
      "inputs": [
        {
          "internalType": "bytes4",
          "name": "interfaceId",
          "type": "bytes4"
        }
      ],
      "name": "supportsInterface",
      "outputs": [
        {
          "internalType": "bool",
          "name": "",
          "type": "bool"
        }
      ],
      "stateMutability": "view",
      "type": "function"
    },
    {
      "inputs": [],
      "name": "symbol",
      "outputs": [
        {
          "internalType": "string",
          "name": "",
          "type": "string"
        }
      ],
      "stateMutability": "view",
      "type": "function"
    },
    {
      "inputs": [
        {
          "internalType": "address",
          "name": "owner",
          "type": "address"
        },
        {
          "internalType": "uint256",
          "name": "index",
          "type": "uint256"
        }
      ],
      "name": "tokenOfOwnerByIndex",
      "outputs": [
        {
          "internalType": "uint256",
          "name": "",
          "type": "uint256"
        }
      ],
      "stateMutability": "view",
      "type": "function"
    },
    {
      "inputs": [
        {
          "internalType": "uint256",
          "name": "tokenId",
          "type": "uint256"
        }
      ],
      "name": "tokenURI",
      "outputs": [
        {
          "internalType": "string",
          "name": "",
          "type": "string"
        }
      ],
      "stateMutability": "view",
      "type": "function"
    },
    {
      "inputs": [],
      "name": "totalSupply",
      "outputs": [
        {
          "internalType": "uint256",
          "name": "",
          "type": "uint256"
        }
      ],
      "stateMutability": "view",
      "type": "function"
    },
    {
      "inputs": [
        {
          "internalType": "address",
          "name": "from",
          "type": "address"
        },
        {
          "internalType": "address",
          "name": "to",
          "type": "address"
        },
        {
          "internalType": "uint256",
          "name": "tokenId",
          "type": "uint256"
        }
      ],
      "name": "transferFrom",
      "outputs": [],
      "stateMutability": "nonpayable",
      "type": "function"
    }
  ],
  "bytecode": "0x608060405234801561001057600080fd5b50612f07806100206000396000f3fe60806040526004361061021a5760003560e01c8063948f76ee11610123578063b88d4fde116100ab578063e985e9c51161006f578063e985e9c5146106b3578063ec25b010146106fc578063ee1a51681461071c578063eff3c4e71461073e578063f6f566b61461075d57600080fd5b8063b88d4fde1461060d578063b91816111461062d578063c87b56dd1461065d578063cf1c316a1461067d578063d5abeb011461069d57600080fd5b8063a0712d68116100f2578063a0712d681461058f578063a22cb465146105a2578063a54dbcf6146105c2578063ac4732b9146105e2578063adadab53146105f857600080fd5b8063948f76ee1461047d57806395d89b41146104ad5780639d5e213c146104c25780639f3f3fa5146104d757600080fd5b806342842e0e116101a65780636352211e116101755780636352211e146103e75780636b53e0341461040757806370a08231146104275780637eb01a58146104475780638a71bb2d1461046757600080fd5b806342842e0e14610357578063485d7d94146103775780635600d2fa146103975780635f823d28146103c757600080fd5b806318160ddd116101ed57806318160ddd146102d057806323b872dd146102ef5780632d296bf11461030f5780632f745c591461032257806340c84b0e1461034257600080fd5b806301ffc9a71461021f57806306fdde0314610254578063081812fc14610276578063095ea7b3146102ae575b600080fd5b34801561022b57600080fd5b5061023f61023a366004612ac9565b610777565b60405190151581526020015b60405180910390f35b34801561026057600080fd5b506102696107c9565b60405161024b9190612c7d565b34801561028257600080fd5b50610296610291366004612b34565b61085b565b6040516001600160a01b03909116815260200161024b565b3480156102ba57600080fd5b506102ce6102c9366004612aa0565b6108e8565b005b3480156102dc57600080fd5b5060a5545b60405190815260200161024b565b3480156102fb57600080fd5b506102ce61030a366004612921565b6109fe565b6102ce61031d366004612b34565b610a2f565b34801561032e57600080fd5b506102e161033d366004612aa0565b610cb9565b34801561034e57600080fd5b50610269610d2b565b34801561036357600080fd5b506102ce610372366004612921565b610db9565b34801561038357600080fd5b506102ce6103923660046128d5565b610dd4565b3480156103a357600080fd5b5061023f6103b23660046128d5565b609a6020526000908152604090205460ff1681565b3480156103d357600080fd5b506102ce6103e2366004612b01565b610e64565b3480156103f357600080fd5b50610296610402366004612b34565b610ec2565b34801561041357600080fd5b50609c54610296906001600160a01b031681565b34801561043357600080fd5b506102e16104423660046128d5565b610f39565b34801561045357600080fd5b506102ce610462366004612b6d565b610fc0565b34801561047357600080fd5b506102e160995481565b34801561048957600080fd5b5061023f6104983660046128d5565b609b6020526000908152604090205460ff1681565b3480156104b957600080fd5b50610269611256565b3480156104ce57600080fd5b506102e1600081565b3480156104e357600080fd5b506105466104f2366004612b34565b60a2602052600090815260409020805460018201546002830154600384015460048501546005860154600687015460079097015495966001600160a01b0395861696959094169492939192909160ff169088565b604080519889526001600160a01b0397881660208a015295909616948701949094526060860192909252608085015260a0840152151560c083015260e08201526101000161024b565b6102ce61059d366004612b34565b611265565b3480156105ae57600080fd5b506102ce6105bd366004612a77565b611544565b3480156105ce57600080fd5b506102ce6105dd3660046129d5565b61154f565b3480156105ee57600080fd5b506102e1609e5481565b34801561060457600080fd5b50609d546102e1565b34801561061957600080fd5b506102ce61062836600461295c565b61170a565b34801561063957600080fd5b5061023f6106483660046128d5565b60a76020526000908152604090205460ff1681565b34801561066957600080fd5b50610269610678366004612b34565b611742565b34801561068957600080fd5b506102ce6106983660046128d5565b61174d565b3480156106a957600080fd5b506102e161271081565b3480156106bf57600080fd5b5061023f6106ce3660046128ef565b6001600160a01b039182166000908152606a6020908152604080832093909416825291909152205460ff1690565b34801561070857600080fd5b506102ce610717366004612b4c565b6117ca565b34801561072857600080fd5b506107316119cf565b60405161024b9190612c39565b34801561074a57600080fd5b5060a05461023f90610100900460ff1681565b34801561076957600080fd5b5060a05461023f9060ff1681565b60006001600160e01b031982166380ac58cd60e01b14806107a857506001600160e01b03198216635b5e139f60e01b145b806107c357506301ffc9a760e01b6001600160e01b03198316145b92915050565b6060606580546107d890612e0c565b80601f016020809104026020016040519081016040528092919081815260200182805461080490612e0c565b80156108515780601f1061082657610100808354040283529160200191610851565b820191906000526020600020905b81548152906001019060200180831161083457829003601f168201915b5050505050905090565b600061086682611ac3565b6108cc5760405162461bcd60e51b815260206004820152602c60248201527f4552433732313a20617070726f76656420717565727920666f72206e6f6e657860448201526b34b9ba32b73a103a37b5b2b760a11b60648201526084015b60405180910390fd5b506000908152606960205260409020546001600160a01b031690565b60006108f382610ec2565b9050806001600160a01b0316836001600160a01b031614156109615760405162461bcd60e51b815260206004820152602160248201527f4552433732313a20617070726f76616c20746f2063757272656e74206f776e656044820152603960f91b60648201526084016108c3565b336001600160a01b038216148061097d575061097d81336106ce565b6109ef5760405162461bcd60e51b815260206004820152603860248201527f4552433732313a20617070726f76652063616c6c6572206973206e6f74206f7760448201527f6e6572206e6f7220617070726f76656420666f7220616c6c000000000000000060648201526084016108c3565b6109f98383611ae0565b505050565b610a083382611b4e565b610a245760405162461bcd60e51b81526004016108c390612ce2565b6109f9838383611c38565b610a3881611ac3565b610a4157600080fd5b6000610a4c82610ec2565b90506001600160a01b038116610a6157600080fd5b6001600160a01b038116331415610a7757600080fd5b600082815260a260209081526040918290208251610100810184528154815260018201546001600160a01b039081169382019390935260028201549092169282019290925260038201546060820152600482015460808201819052600583015460a0830152600683015460ff16151560c083015260079092015460e082015290341015610b0357600080fd5b8060c00151610b1157600080fd5b6099543490600090606490610b269084612daa565b610b309190612d96565b90506000610b3e8284612dc9565b6098546040519192506001600160a01b03169083156108fc029084906000818181858888f19350505050158015610b79573d6000803e3d6000fd5b5083604001516001600160a01b03166108fc829081150290604051600060405180830381858888f19350505050158015610bb7573d6000803e3d6000fd5b5060808401805160608601908152600088815260a2602090815260409182902088518155908801516001820180546001600160a01b03199081166001600160a01b039384161790915592890151600283018054909416911617909155905160038201559051600482015560a0850151600582015560c085015160068201805460ff191691151591909117905560e0850151600790910155610c59853388611c38565b60408481015160808087015183518a81526001600160a01b0390931660208401523383850152606083015291517fdc84c3c75a393011959e6391215e5b01982de6ad00f83b8b26ac7c52a5844b22929181900390910190a1505050505050565b6000610cc483610f39565b8210610d025760405162461bcd60e51b815260206004820152600d60248201526c6f7574206f6620626f756e647360981b60448201526064016108c3565b506001600160a01b0391909116600090815260a360209081526040808320938352929052205490565b609f8054610d3890612e0c565b80601f0160208091040260200160405190810160405280929190818152602001828054610d6490612e0c565b8015610db15780601f10610d8657610100808354040283529160200191610db1565b820191906000526020600020905b815481529060010190602001808311610d9457829003601f168201915b505050505081565b6109f98383836040518060200160405280600081525061170a565b6097546001600160a01b03163314610e1a5760405162461bcd60e51b81526020600482015260096024820152682737ba1037bbb732b960b91b60448201526064016108c3565b6001600160a01b038116610e2d57600080fd5b6001600160a01b038116331415610e4357600080fd5b6001600160a01b0316600090815260a760205260409020805460ff19169055565b6097546001600160a01b03163314610eab5760405162461bcd60e51b815260206004820152600a60248201526927b7363c9037bbb732b960b11b60448201526064016108c3565b8051610ebe90609f90602084019061277b565b5050565b6000818152606760205260408120546001600160a01b0316806107c35760405162461bcd60e51b815260206004820152602960248201527f4552433732313a206f776e657220717565727920666f72206e6f6e657869737460448201526832b73a103a37b5b2b760b91b60648201526084016108c3565b60006001600160a01b038216610fa45760405162461bcd60e51b815260206004820152602a60248201527f4552433732313a2062616c616e636520717565727920666f7220746865207a65604482015269726f206164647265737360b01b60648201526084016108c3565b506001600160a01b031660009081526068602052604090205490565b610fc983611ac3565b6110075760405162461bcd60e51b815260206004820152600f60248201526e1d1bdad95b881b9bdd08199bdd5b99608a1b60448201526064016108c3565b600061101284610ec2565b90506001600160a01b03811633146110585760405162461bcd60e51b81526020600482015260096024820152683737ba1037bbb732b960b91b60448201526064016108c3565b600060a2600086815260200190815260200160002060405180610100016040529081600082015481526020016001820160009054906101000a90046001600160a01b03166001600160a01b03166001600160a01b031681526020016002820160009054906101000a90046001600160a01b03166001600160a01b03166001600160a01b031681526020016003820154815260200160048201548152602001600582015481526020016006820160009054906101000a900460ff16151515158152602001600782015481525050905083816080018181525050828160c00190151590811515815250508060a260008781526020019081526020016000206000820151816000015560208201518160010160006101000a8154816001600160a01b0302191690836001600160a01b0316021790555060408201518160020160006101000a8154816001600160a01b0302191690836001600160a01b03160217905550606082015181600301556080820151816004015560a0820151816005015560c08201518160060160006101000a81548160ff02191690831515021790555060e082015181600701559050507f64b12cff1b4037cf4ed0ff891d2f6f0ee06c004d6bac81d0e718c447a93fe16e858486604051611247939291909283529015156020830152604082015260600190565b60405180910390a15050505050565b6060606680546107d890612e0c565b60a05460ff6101009091041615156001146112ad5760405162461bcd60e51b81526020600482015260086024820152673737ba1037b832b760c11b60448201526064016108c3565b336112b757600080fd5b60a554612710906112c9908390612d7e565b11156113045760405162461bcd60e51b815260206004820152600a6024820152696d617820737570706c7960b01b60448201526064016108c3565b6000811161133c5760405162461bcd60e51b81526020600482015260056024820152644d696e203160d81b60448201526064016108c3565b600c8111156113765760405162461bcd60e51b815260206004820152600660248201526526b0bc10189960d11b60448201526064016108c3565b336000908152609a602052604081205460ff1661141c5781609e5461139b9190612daa565b90508034146113dd5760405162461bcd60e51b815260206004820152600e60248201526d4e6f7420656e6f7567682066656560901b60448201526064016108c3565b6098546040516001600160a01b03909116903480156108fc02916000818181858888f19350505050158015611416573d6000803e3d6000fd5b5061144a565b60405133903480156108fc02916000818181858888f19350505050158015611448573d6000803e3d6000fd5b505b60015b8281116109f95761146260a180546001019055565b600061146d60a15490565b90506114793382611ddf565b6040805161010081018252828152336020808301828152838501928352600060608501818152608086018a815260a0870183815260c08801848152606460e08a019081529a855260a2909652979092209551865591516001860180546001600160a01b03199081166001600160a01b039384161790915594516002870180549096169116179093555160038401559051600483015591516005820155905160068201805460ff191691151591909117905590516007909101558061153c81612e47565b91505061144d565b610ebe338383611df9565b600054610100900460ff1661156a5760005460ff161561156e565b303b155b6115d15760405162461bcd60e51b815260206004820152602e60248201527f496e697469616c697a61626c653a20636f6e747261637420697320616c72656160448201526d191e481a5b9a5d1a585b1a5e995960921b60648201526084016108c3565b600054610100900460ff161580156115f3576000805461ffff19166101011790555b61163960405180604001604052806006815260200165426f6e73616960d01b81525060405180604001604052806006815260200165426f6e73616960d01b815250611ec8565b6099879055609780546001600160a01b03808c166001600160a01b0319928316811790935560988054918c16919092168117909155609e8890556000918252609a60209081526040808420805460ff19908116600190811790925593855293208054909216909217905585516116b591609f919088019061277b565b50609c80546001600160a01b0319166001600160a01b03861617905560a0805461ffff191684151561ff001916176101008415150217905580156116ff576000805461ff00191690555b505050505050505050565b6117143383611b4e565b6117305760405162461bcd60e51b81526004016108c390612ce2565b61173c84848484611ef9565b50505050565b60606107c382611f2c565b6097546001600160a01b031633146117935760405162461bcd60e51b81526020600482015260096024820152682737ba1037bbb732b960b91b60448201526064016108c3565b6001600160a01b0381166117a657600080fd5b6001600160a01b0316600090815260a760205260409020805460ff19166001179055565b33600090815260a7602052604090205460ff16806117f257506097546001600160a01b031633145b61182f5760405162461bcd60e51b815260206004820152600e60248201526d139bdd08185d5d1a1bdc9a5e995960921b60448201526064016108c3565b600060a2600084815260200190815260200160002060405180610100016040529081600082015481526020016001820160009054906101000a90046001600160a01b03166001600160a01b03166001600160a01b031681526020016002820160009054906101000a90046001600160a01b03166001600160a01b03166001600160a01b031681526020016003820154815260200160048201548152602001600582015481526020016006820160009054906101000a900460ff161515151581526020016007820154815250509050818160e00181815250508060a260008581526020019081526020016000206000820151816000015560208201518160010160006101000a8154816001600160a01b0302191690836001600160a01b0316021790555060408201518160020160006101000a8154816001600160a01b0302191690836001600160a01b03160217905550606082015181600301556080820151816004015560a0820151816005015560c08201518160060160006101000a81548160ff02191690831515021790555060e08201518160070155905050505050565b606060006119dc60a55490565b905060008167ffffffffffffffff811115611a0757634e487b7160e01b600052604160045260246000fd5b604051908082528060200260200182016040528015611a30578160200160208202803683370190505b509050600060015b838111611aba57600081815260a2602052604090206006015460ff16151560011415611aa857600081815260a260205260409020548351849084908110611a8f57634e487b7160e01b600052603260045260246000fd5b602090810291909101015281611aa481612e47565b9250505b80611ab281612e47565b915050611a38565b50909392505050565b6000908152606760205260409020546001600160a01b0316151590565b600081815260696020526040902080546001600160a01b0319166001600160a01b0384169081179091558190611b1582610ec2565b6001600160a01b03167f8c5be1e5ebec7d5bd14f71427d1e84f3dd0314c0f7b2291e5b200ac8c7c3b92560405160405180910390a45050565b6000611b5982611ac3565b611bba5760405162461bcd60e51b815260206004820152602c60248201527f4552433732313a206f70657261746f7220717565727920666f72206e6f6e657860448201526b34b9ba32b73a103a37b5b2b760a11b60648201526084016108c3565b6000611bc583610ec2565b9050806001600160a01b0316846001600160a01b03161480611c005750836001600160a01b0316611bf58461085b565b6001600160a01b0316145b80611c3057506001600160a01b038082166000908152606a602090815260408083209388168352929052205460ff165b949350505050565b826001600160a01b0316611c4b82610ec2565b6001600160a01b031614611caf5760405162461bcd60e51b815260206004820152602560248201527f4552433732313a207472616e736665722066726f6d20696e636f72726563742060448201526437bbb732b960d91b60648201526084016108c3565b6001600160a01b038216611d115760405162461bcd60e51b8152602060048201526024808201527f4552433732313a207472616e7366657220746f20746865207a65726f206164646044820152637265737360e01b60648201526084016108c3565b611d1c838383611ff7565b611d27600082611ae0565b6001600160a01b0383166000908152606860205260408120805460019290611d50908490612dc9565b90915550506001600160a01b0382166000908152606860205260408120805460019290611d7e908490612d7e565b909155505060008181526067602052604080822080546001600160a01b0319166001600160a01b0386811691821790925591518493918716917fddf252ad1be2c89b69c2b068fc378daa952ba7f163c4a11628f55a4df523b3ef91a4505050565b610ebe8282604051806020016040528060008152506121cb565b816001600160a01b0316836001600160a01b03161415611e5b5760405162461bcd60e51b815260206004820152601960248201527f4552433732313a20617070726f766520746f2063616c6c65720000000000000060448201526064016108c3565b6001600160a01b038381166000818152606a6020908152604080832094871680845294825291829020805460ff191686151590811790915591519182527f17307eab39ab6107e8899845ad3d59bd9653f200f220920489ca2b5937696c31910160405180910390a3505050565b600054610100900460ff16611eef5760405162461bcd60e51b81526004016108c390612d33565b610ebe82826121fe565b611f04848484611c38565b611f108484848461224c565b61173c5760405162461bcd60e51b81526004016108c390612c90565b6060611f3782611ac3565b611f9b5760405162461bcd60e51b815260206004820152602f60248201527f4552433732314d657461646174613a2055524920717565727920666f72206e6f60448201526e3732bc34b9ba32b73a103a37b5b2b760891b60648201526084016108c3565b6000611fa5612359565b90506000815111611fc55760405180602001604052806000815250611ff0565b80611fcf84612368565b604051602001611fe0929190612bcd565b6040516020818303038152906040525b9392505050565b600081815260a26020908152604091829020825161010081018452815481526001808301546001600160a01b03908116948301949094526003830154606083015260048301546080830152600583015460a08301818152600685015460ff16151560c085015260079094015460e084015293871694820194909452929161207f908390612d7e565b905250600060c0820181815283825260a2602090815260409283902084518155908401516001820180546001600160a01b03199081166001600160a01b03938416179091559385015160028301805490951690821617909355606084015160038201556080840151600482015560a08401516005820155905160068201805460ff191691151591909117905560e08301516007909101558416612169576121648260a58054600083815260a660205260408120829055600182018355919091527fb29a2b3b6f2ff1b765777a231725941da5072cc4fcc30ac4a2ce09706e8ddeff0155565b61218c565b826001600160a01b0316846001600160a01b03161461218c5761218c8483612482565b6001600160a01b0383166121a8576121a38261251f565b61173c565b836001600160a01b0316836001600160a01b03161461173c5761173c83836125f8565b6121d5838361263c565b6121e2600084848461224c565b6109f95760405162461bcd60e51b81526004016108c390612c90565b600054610100900460ff166122255760405162461bcd60e51b81526004016108c390612d33565b815161223890606590602085019061277b565b5080516109f990606690602084019061277b565b60006001600160a01b0384163b1561234e57604051630a85bd0160e11b81526001600160a01b0385169063150b7a0290612290903390899088908890600401612bfc565b602060405180830381600087803b1580156122aa57600080fd5b505af19250505080156122da575060408051601f3d908101601f191682019092526122d791810190612ae5565b60015b612334573d808015612308576040519150601f19603f3d011682016040523d82523d6000602084013e61230d565b606091505b50805161232c5760405162461bcd60e51b81526004016108c390612c90565b805181602001fd5b6001600160e01b031916630a85bd0160e11b149050611c30565b506001949350505050565b6060609f80546107d890612e0c565b60608161238c5750506040805180820190915260018152600360fc1b602082015290565b8160005b81156123b657806123a081612e47565b91506123af9050600a83612d96565b9150612390565b60008167ffffffffffffffff8111156123df57634e487b7160e01b600052604160045260246000fd5b6040519080825280601f01601f191660200182016040528015612409576020820181803683370190505b5090505b8415611c305761241e600183612dc9565b915061242b600a86612e62565b612436906030612d7e565b60f81b81838151811061245957634e487b7160e01b600052603260045260246000fd5b60200101906001600160f81b031916908160001a90535061247b600a86612d96565b945061240d565b6000600161248f84610f39565b6124999190612dc9565b600083815260a460205260409020549091508082146124ec576001600160a01b038416600090815260a360209081526040808320858452825280832054848452818420819055835260a490915290208190555b50600091825260a4602090815260408084208490556001600160a01b03909416835260a381528383209183525290812055565b60a55460009061253190600190612dc9565b600083815260a6602052604081205460a5805493945090928490811061256757634e487b7160e01b600052603260045260246000fd5b906000526020600020015490508060a5838154811061259657634e487b7160e01b600052603260045260246000fd5b600091825260208083209091019290925582815260a6909152604080822084905585825281205560a58054806125dc57634e487b7160e01b600052603160045260246000fd5b6001900381819060005260206000200160009055905550505050565b600061260383610f39565b6001600160a01b03909316600090815260a360209081526040808320868452825280832085905593825260a49052919091209190915550565b6001600160a01b0382166126925760405162461bcd60e51b815260206004820181905260248201527f4552433732313a206d696e7420746f20746865207a65726f206164647265737360448201526064016108c3565b61269b81611ac3565b156126e85760405162461bcd60e51b815260206004820152601c60248201527f4552433732313a20746f6b656e20616c7265616479206d696e7465640000000060448201526064016108c3565b6126f460008383611ff7565b6001600160a01b038216600090815260686020526040812080546001929061271d908490612d7e565b909155505060008181526067602052604080822080546001600160a01b0319166001600160a01b03861690811790915590518392907fddf252ad1be2c89b69c2b068fc378daa952ba7f163c4a11628f55a4df523b3ef908290a45050565b82805461278790612e0c565b90600052602060002090601f0160209004810192826127a957600085556127ef565b82601f106127c257805160ff19168380011785556127ef565b828001600101855582156127ef579182015b828111156127ef5782518255916020019190600101906127d4565b506127fb9291506127ff565b5090565b5b808211156127fb5760008155600101612800565b600067ffffffffffffffff8084111561282f5761282f612ea2565b604051601f8501601f19908116603f0116810190828211818310171561285757612857612ea2565b8160405280935085815286868601111561287057600080fd5b858560208301376000602087830101525050509392505050565b80356001600160a01b03811681146128a157600080fd5b919050565b803580151581146128a157600080fd5b600082601f8301126128c6578081fd5b611ff083833560208501612814565b6000602082840312156128e6578081fd5b611ff08261288a565b60008060408385031215612901578081fd5b61290a8361288a565b91506129186020840161288a565b90509250929050565b600080600060608486031215612935578081fd5b61293e8461288a565b925061294c6020850161288a565b9150604084013590509250925092565b60008060008060808587031215612971578081fd5b61297a8561288a565b93506129886020860161288a565b925060408501359150606085013567ffffffffffffffff8111156129aa578182fd5b8501601f810187136129ba578182fd5b6129c987823560208401612814565b91505092959194509250565b600080600080600080600080610100898b0312156129f1578384fd5b6129fa8961288a565b9750612a0860208a0161288a565b96506040890135955060608901359450608089013567ffffffffffffffff811115612a31578485fd5b612a3d8b828c016128b6565b945050612a4c60a08a0161288a565b9250612a5a60c08a016128a6565b9150612a6860e08a016128a6565b90509295985092959890939650565b60008060408385031215612a89578182fd5b612a928361288a565b9150612918602084016128a6565b60008060408385031215612ab2578182fd5b612abb8361288a565b946020939093013593505050565b600060208284031215612ada578081fd5b8135611ff081612eb8565b600060208284031215612af6578081fd5b8151611ff081612eb8565b600060208284031215612b12578081fd5b813567ffffffffffffffff811115612b28578182fd5b611c30848285016128b6565b600060208284031215612b45578081fd5b5035919050565b60008060408385031215612b5e578182fd5b50508035926020909101359150565b600080600060608486031215612b81578081fd5b8335925060208401359150612b98604085016128a6565b90509250925092565b60008151808452612bb9816020860160208601612de0565b601f01601f19169290920160200192915050565b60008351612bdf818460208801612de0565b835190830190612bf3818360208801612de0565b01949350505050565b6001600160a01b0385811682528416602082015260408101839052608060608201819052600090612c2f90830184612ba1565b9695505050505050565b6020808252825182820181905260009190848201906040850190845b81811015612c7157835183529284019291840191600101612c55565b50909695505050505050565b602081526000611ff06020830184612ba1565b60208082526032908201527f4552433732313a207472616e7366657220746f206e6f6e20455243373231526560408201527131b2b4bb32b91034b6b83632b6b2b73a32b960711b606082015260800190565b60208082526031908201527f4552433732313a207472616e736665722063616c6c6572206973206e6f74206f6040820152701ddb995c881b9bdc88185c1c1c9bdd9959607a1b606082015260800190565b6020808252602b908201527f496e697469616c697a61626c653a20636f6e7472616374206973206e6f74206960408201526a6e697469616c697a696e6760a81b606082015260800190565b60008219821115612d9157612d91612e76565b500190565b600082612da557612da5612e8c565b500490565b6000816000190483118215151615612dc457612dc4612e76565b500290565b600082821015612ddb57612ddb612e76565b500390565b60005b83811015612dfb578181015183820152602001612de3565b8381111561173c5750506000910152565b600181811c90821680612e2057607f821691505b60208210811415612e4157634e487b7160e01b600052602260045260246000fd5b50919050565b6000600019821415612e5b57612e5b612e76565b5060010190565b600082612e7157612e71612e8c565b500690565b634e487b7160e01b600052601160045260246000fd5b634e487b7160e01b600052601260045260246000fd5b634e487b7160e01b600052604160045260246000fd5b6001600160e01b031981168114612ece57600080fd5b5056fea2646970667358221220aa6889a52c4f1c182371426f04fcbc5cfe9a2b5b7c6e55799cfa2272b897d0ca64736f6c63430008040033",
  "linkReferences": {},
  "deployedLinkReferences": {}
}